:020000040800F2
:10000000C8050020ED01000823260008E71F0008AE
:1000100021260008F9020008C92D00080000000090
:100020000000000000000000000000003B29000864
:10003000FB02000800000000252600083D290008FA
:10004000070200080702000807020008070200086C
:10005000070200080702000807020008070200085C
:10006000070200080702000807020008070200084C
:10007000070200080702000807020008070200083C
:10008000070200080000000007020008070200083D
:10009000070200080702000807020008070200081C
:1000A00007020008C5290008B9290008070200084E
:1000B00007020008070200080702000807020008FC
:1000C00007020008070200080702000807020008EC
:1000D00007020008070200080702000807020008DC
:1000E00007020008070200080702000807020008CC
:1000F00007020008070200080702000800000000CD
:1001000000000000070200080000000007020008CD
:1001100007020008000000000702000807020008AC
:10012000070200080702000807020008070200088B
:10013000070200080000000000000000070200089D
:10014000070200080702000800000000000000008D
:10015000000000000000000000000000000000009F
:10016000000000000000000000000000070200087E
:10017000070200080000000000000000000000006E
:10018000000000000702000800000000000000005E
:10019000000000000000000000000000000000005F
:1001A000000000000000000007020008070200082D
:1001B000070200080702000807020008000000000C
:1001C000000000000702000800000000000000001E
:1001D0000702000807020008DFF80CD000F040F822
:1001E00000480047ED300008C80500200648804759
:1001F00006480047FEE7FEE7FEE7FEE7FEE7FEE70C
:10020000FEE7FEE7FEE7FEE7A9290008D90100089E
:10021000D2B201E000F8012B491EFBD27047002248
:10022000F6E710B513460A4604461946FFF7F0FFF5
:10023000204610BD30B50B46014600202022012487
:1002400009E021FA02F59D4205D303FA02F5491BA4
:1002500004FA02F52844151EA2F10102F1DC30BDBA
:10026000064C074D06E0E06840F0010394E8070003
:1002700098471034AC42F6D3FFF7B2FFFC450008B4
:100280001C46000870B504460068816811F0010F33
:100290002DD18168174A11421AD18168D54329406E
:1002A000491C816000F03EFD06461BE0816811F0AC
:1002B000010F03D181682940491C816000F032FDA3
:1002C000801B02280ED920680068C043C00709D0EF
:1002D000E06D40F01000E065206E40F00100206607
:1002E000012070BD20680168C943C907DED1002024
:1002F00070BD00003F000080FEE77047002240F61E
:10030000B83306E00021491C89B29942FBD3521C44
:1003100092B28242F6D3704772B6FEE72DE9F84FEB
:1003200000270446009790F85800DFF8D8930D4650
:10033000B846012811D0012684F85860206802F0E0
:1003400039F860B1E06D40F02000E0655FF0010732
:1003500084F858803846BDE8F88F0220FBE7D5E9DD
:1003600000210C23206803EA91131844036B01F069
:100370001F014FF01F0C0CFA01FCC2F3846223EA48
:100380000C038A4013430363206802F013F882468B
:10039000206802F00BF85AEA00003CD1AA682968EC
:1003A0002068B2F1004F37D002F008F820684169A8
:1003B00021F00041416120686969C268C2F3C1024D
:1003C000520091402A69042A31D000EB82002B6848
:1003D000026EDFF834C303F0F84302EA0C020B4369
:1003E0001A4342F00041016620682A69A96900EBBE
:1003F0008200026E22F080720A430266297F226820
:100400002869012910D0002102EB8000026E22F041
:1004100000720A4302667DE0002201F0CFFF2068EF
:10042000416941F00041C5E74FF00071ECE7002160
:1004300001F0B6FF400320684FF0000172D001F0D8
:10044000AFFF90FAA0F0B0FA80F1286842036ED0B6
:1004500090FAA0F0B0FA80F0814204D10022114657
:10046000206801F0BAFF0121206801F099FF4003E4
:1004700020684FF001015DD001F092FF90FAA0F0EA
:10048000B0FA80F12868420359D090FAA0F0B0FA8F
:1004900080F0814204D100220121206801F09DFFFB
:1004A0000221206801F07CFF400320684FF0020128
:1004B00048D001F075FF90FAA0F0B0FA80F12868FA
:1004C000420344D090FAA0F0B0FA80F0814204D107
:1004D00000220221206801F080FF0321206801F042
:1004E0005FFF400320684FF0030133D001F058FF55
:1004F00090FAA0F0B0FA80F1286842032FD090FA69
:10050000A0F0B0FA80F0814204D1002203212068DB
:1005100001F063FF2068816811F0010F22D0A8E08C
:1005200000E004E001F03CFFC0F384618DE7C0F31C
:10053000846091E701F034FFC0F38461A2E7C0F367
:100540008460A6E701F02CFFC0F38461B7E7C0F335
:100550008460BBE701F024FFC0F38461CCE7C0F303
:100560008460D0E7EB6829684B4550F8B03FC1F391
:10057000120101D10B4300E08B430360E86848455A
:1005800077D1286841031CD090FAA0F1B1FA81F12B
:10059000491C01F01F0109294FEA403132D80029D6
:1005A00012D000BF90FAA0F1B1FA81F101F101017E
:1005B00001F01F0106FA01F609D100BFC0F3846102
:1005C00009E0C0F38461E3E7C0F38461EEE790FAE9
:1005D000A0F1B1FA81F101F1010101F01F0146EA38
:1005E000816102D1C0F3846003E090FAA0F0B0FA18
:1005F00080F000F1010000F01F0000EB400041EA34
:10060000005132E000290ED090FAA0F1B1FA81F148
:1006100001F1010101F01F0106FA01F606D100BF48
:10062000C0F3846106E0C0F38461F1E790FAA0F1C1
:10063000B1FA81F101F1010101F01F0146EA816186
:1006400002D1C0F3846003E090FAA0F0B0FA80F029
:1006500000F1010000F01F002C4A00EB400002EB0B
:10066000005041EA000141F00071AA68206801F0E1
:10067000A5FE27482A6802423FF46AAE25488168F1
:10068000254B01F0E0719A4202D0244B9A421CD1D2
:100690000B021AD42268B2F1A04F7FF459AE8268DF
:1006A00041F4000122F0E0720A4382601C481D49B7
:1006B0000068B0FBF1F0401C00EB4000800000E05F
:1006C000401E00900028FBD142E6174D174BAA426E
:1006D00007D1CD0105D422689A42F5D041F080714E
:1006E00009E0134DAA42EFD14A02EDD422689A42A2
:1006F000EAD041F48001826822F0E0720A4382600D
:1007000026E6000000007F4000F0FF03000020FE0E
:100710000000088000030050000021C31000C090BA
:1007200018000020400D0300000052C700010050D7
:10073000000084CB0068006C70470000F8B54FF0F3
:10074000000504002E46009502D0E06D10B107E0D0
:100750000120F8BD204600F0EFF8266684F85860C6
:1007600020688168C1F3407119B181686A4A1140FB
:10077000816020688168C1F3007189B98168674A26
:10078000114041F080518160654866490068B0FBC6
:10079000F1F04000801C00E0401E00900028FBD1DA
:1007A00020688168C1F3007141B9E16D41F0100129
:1007B000E165216E41F001012166012501F0FAFD9C
:1007C000E16DC90600D430B1E06D40F01000E06585
:1007D00001252846F8BDE06D20F4807040F002004D
:1007E000E0652068806810F0010F11D14FF0A04043
:1007F00080684D4900F00100896801F0010108435B
:1008000006D14A486168826822F47C120A438260F9
:10081000E168E06B627F0843A16841EA4231084326
:1008200094F8241040EA0140012904D1218D404A66
:1008300002EB41410843E16A29B101F47871226B6E
:10084000014342EA01002168CA683A4B1A40024358
:10085000CA6020680169626B21F040611143016147
:10086000206801F0A7FD0646206801F09FFD304397
:100870002ED1207F94F83810800340EA410220688E
:10088000C16844F2020399431143C1602069002802
:10089000206801690AD041F480310161206850F874
:1008A000C01F22696FF30D01114307E021F480316D
:1008B0000161206850F8C01F6FF30D01016094F8CA
:1008C000400001280CD02068016921F0010101617C
:1008D000606901282068016B21F00F0111D013E03D
:1008E000D4E911010843D4E91312114308432168E4
:1008F0000A6940F2FC739A43104340F0010008611A
:10090000E6E7226A521E11430163E06D20F0020007
:1009100040F00100E0655CE7C0FFFF5FC0FFFF7FC4
:1009200018000020400D030000010050000300509B
:100930000000FEFF0740F0FF10B598B004461421F8
:1009400011A8FFF76CFC44216846FFF768FC1549C5
:100950002068884223D1C401400500940F90684666
:1009600000F0DEFA08B1FFF7D7FC0F48C16C41F484
:100970000051C164C16C01F400511691C16C41F089
:100980000201C164C06C11A900F00200169003209E
:10099000CDE9114000201390044800F095F818B0FC
:1009A00010BD00000001005000100240000400488B
:1009B0002DE9F04104463848806800F01F052068A2
:1009C00001F0F8FC18B102210846BDE8F08194F866
:1009D000580001280CD0012084F858002046FFF769
:1009E00051FC01004FF0000304D084F85830EBE7CD
:1009F0000220EAE7E06D40F60162904340F4807027
:100A0000E065264A20684FF0A046904201D1374663
:100A100000E00746874200D01DB9E76D27F4801734
:100A2000E765E76DFF0404D5276E27F00607276604
:100A300000E023661C27076084F858302068904245
:100A400001D1334600E00346834215D0A5B1052D00
:100A500012D0092D10D0E36D43F48013E36590426A
:100A600000D13046C0688001AED5E06D20F4005062
:100A700040F48050E065A7E7C268920105D5E26DB9
:100A800022F4005242F48052E2658268044B1A401C
:100A9000121D826098E70000000300500001005022
:100AA000C0FFFF7F70B5044600F03CF90546601CAE
:100AB00002D004484068044400F034F9401BA042CE
:100AC000FAD370BD0C0000202DE9F04FDFF8209222
:100AD000002301260324A9F1040B85B00F2709F197
:100AE000040AABF1040EFAE006FA03F52A407CD0C2
:100AF00091F804C00CF0030CBCF1010F02D0BCF162
:100B0000020F26D1D0F808C0CDF800C04FEA430C40
:100B100004FA0CF8CDF810C0DDF800C02CEA080C7F
:100B2000CDF800C0D1F80C80DDF810C008FA0CF840
:100B3000DDF800C048EA0C08C0F80880D0F804C00E
:100B40002CEA050C0D79C5F300159D4045EA0C050E
:100B500045600D79ED43AD070ED0C5684FEA4308F7
:100B600004FA08FC25EA0C05D1F808C00CFA08FCC8
:100B70004CEA050CC0F80CC00D7905F00305022DF8
:100B800016D1DD0800EB850CCDF808C0DCF820801C
:100B90005D074FEAD56C07FA0CF528EA05080D69E0
:100BA00005FA0CF5DDF808C045EA0805CCF8205038
:100BB00005684FEA430CCDF808C004FA0CFC25EA9E
:100BC0000C0591F804C00CF00308DDF808C008FA21
:100BD0000CF848EA0508C0F800804D6815F4403F5D
:100BE0007CD0444DD5F860C000E077E04CF0010CBB
:100BF000C5F860C02D6E23F0030C05F001050095CB
:100C00003D4D65440295AD684FEA837C4FEA1C7800
:100C100007FA08FC25EA0C05B0F1904F06D0DFF882
:100C2000DCC0604505D14FF0010C20E04FF0000C16
:100C30001DE0DFF8CCC0604502D14FF0020C16E099
:100C4000DFF8C0C0604502D14FF0030C0FE0DFF8C1
:100C5000B8C0604502D14FF0040C08E0DFF8ACC02A
:100C6000604502D14FF0050C01E04FF0060C0CFA84
:100C700008FC4CEA050C029DC5F808C0D9F80050E4
:100C8000CC46D1F8048095435FEAC82800D51543C7
:100C9000CCF80050DAF80050D446D1F804809543DF
:100CA0005FEA882800D51543CCF80050DBF80050E7
:100CB000DC46D1F8048095435FEA883800D51543B7
:100CC000CCF80050DEF80050F446D1F8048095438B
:100CD0005FEAC83800D51543CCF800505B1C0A68A1
:100CE00032FA03F57FF400AF05B0BDE8F08F0000E5
:100CF00008040140001002400000014000040048C8
:100D000000080048000C004800100048001400488B
:100D10000069084000D0012070470AB18161704726
:100D20008162704701488068704700000C00002015
:100D30000248816842681144816070470C000020BD
:100D400010B50024032000F073F80F2000F008F81D
:100D500008B1012401E000F025F8204610BD000094
:100D600070B50E4E05460024706898B14FF47A7144
:100D7000B1FBF0F00A490968B1FBF0F000F040FD6A
:100D800040B9102D06D200222946501E00F030F83E
:100D9000356000E00124204670BD00000C000020FA
:100DA000180000200A4882B0016E41F0010101667E
:100DB000016E01F001010091816D41F0805181656A
:100DC000806D00F08050009002B000F0A1B80000EB
:100DD00000100240002809DB00F01F0201219140B1
:100DE0004009800000F1E020C0F8001170470000C9
:100DF000F0B40E4B1B680C46C3F30223C3F1070586
:100E0000042D00D90425191D072901D2002300E073
:100E1000DB1E012606FA05F1491E214099409E403D
:100E2000761E16403143F0BC01F0E4BF0CED00E04B
:100E3000064900F0070208684FF6FF03184040EA31
:100E40000220034A10430860704700000CED00E0E8
:100E50000000FA052B492C4B0A6832214A432B49E2
:100E600040B1B0F5007F086829D020F4C06040F49C
:100E700080602CE00868C0F34120022804D051F8BB
:100E8000800F20F4807022E0D1F8800020F4807080
:100E9000C1F88000086820F4C06040F40070086069
:100EA000B2FBF3F0401C00E0401E4A69520501D538
:100EB0000028F9D1486940050AD503207047C0F3DE
:100EC0004120022806D051F8800F40F4807008605D
:100ED00000207047D1F8800040F48070C1F8800095
:100EE000086820F4C06040F400700860B2FBF3F0C2
:100EF000401C00E0401E4A695205DBD50028F9D1AC
:100F0000D8E700001800002040420F0000700040A9
:100F10000248816841F48041816070470070004060
:100F20002DE9F8430446006800269D4D00035ED578
:100F3000A86D0027C00008D4A86D40F08050A865B7
:100F4000A86D012700F080500090DFF85892D9F882
:100F5000001041F48071C9F80010FFF7E3FE8046ED
:100F600006E000BFFFF7DEFEA0EB080002282BD84A
:100F7000D9F80000C005F5D5D5F8900010F4407000
:100F800014D0216C814211D0D5F89000D5F8901082
:100F900020F4407041F48031C5F89010D5F89010DD
:100FA00021F48031C5F89010C5F89000C00711D029
:100FB000FFF7B8FE804641F2883907E0FFF7B2FE3E
:100FC000A0EB0801494501D903260BE0D5F89000B4
:100FD0008007F3D5D5F89000216C20F440700843C9
:100FE000C5F890001FB1A86D20F08050A86520784A
:100FF000C00707D0D5F88800616820F003000843D7
:10100000C5F888002078800707D5D5F88800A16842
:1010100020F00C000843C5F888002078400707D569
:10102000D5F88800E16820F030000843C5F8880052
:101030002078000707D5D5F88800216920F0C00086
:101040000843C5F888002078800607D5D5F88800C1
:10105000616920F440600843C5F8880020784006A4
:1010600007D5D5F88800A16920F440500843C5F899
:1010700088002078000607D5D5F88800E16920F4BB
:1010800040400843C5F888002088C00507D5D5F83A
:101090008800216A20F440300843C5F88800208881
:1010A000800507D5D5F88800616A20F44020084300
:1010B000C5F88800208840050FD5D5F88800A16ABA
:1010C00020F440100843C5F88800A06AB0F5801FDE
:1010D00003D1E86840F48010E860208800050FD54F
:1010E000D5F88800E16A20F440000843C5F888007C
:1010F000E06AB0F5800F03D1E86840F48010E86042
:101100002088C0040FD5D5F88800216B20F04070EE
:101110000843C5F88800206BB0F1807F03D1E868F0
:1011200040F48010E86020884FF0006180040ED504
:10113000D5F88800626B20F040601043C5F8880045
:10114000606B884203D1E86840F48010E860208832
:1011500040040ED5D5F88800A26B20F04060104303
:10116000C5F88800A06B884203D1E86840F480107D
:10117000E860208800040FD5D5F88800E16B20F0E6
:1011800040500843C5F88800E06BB0F1805F03D1A0
:10119000E86840F48030E8603046BDE8F88300003D
:1011A00000100240007000402DE9F0470E46050097
:1011B0004FF0000725D0DFF8AC81D8F8000000F030
:1011C0000F00B0420CD2D8F8001021F00F013143CB
:1011D000C8F80010D8F8000000F00F00B04210D19D
:1011E0002968614CC80741F2883A5AD06868DFF82C
:1011F0007C91032808D0022820682DD040050028C3
:101200002CDB0120BDE8F08720688001F9D5E0687B
:1012100000F00302E068C0F30310401C032A19D059
:10122000534A00BFB2FBF0F0E268C2F3062250431B
:10123000E268C2F34162521C5200B0FBF2F0484532
:1012400017D9A06810F0F00F0CD0880711D5A86846
:1012500040B10EE0474AE5E78003D0E700F092F89E
:10126000484506D9A06820F0F00040F08000A0605A
:101270008027A068696820F003000843A060FFF79A
:1012800051FD814606E000BFFFF74CFDA0EB0901D0
:1012900051453AD8A068696800F00C00B0EB810FA6
:1012A000F2D12868810714D5400703D5A06840F41F
:1012B000E060A0602878000705D5A06820F46050A1
:1012C00040F4E060A060A068A96820F0F000084346
:1012D00004E0802F03D1A06820F0F000A060D8F8CF
:1012E0000010404601F00F01B14216D9016821F00B
:1012F0000F0131430160FFF715FD074607E000BF0E
:10130000FFF710FDC11B514501D903207AE7D8F83A
:10131000000000F00F00B042F2D12878400705D558
:10132000A068E96820F4E0600843A060287800071E
:1013300006D5A068296920F4605040EAC100A06089
:1013400000F020F8A1680C4AC1F30311515C01F0D0
:101350001F01C8400949086009480068BDE8F04716
:10136000FFF7FEBC002002400010024000B4C4049D
:101370000024F40000366E011C3400081800002020
:101380000C000020184910B58868C0F38102174886
:10139000012A0BD08A68164BC2F38102022A06D0BA
:1013A0008A68C2F38102032A03D0002010BD1846C8
:1013B00010BDCA6802F00304CA68C2F30312521CCB
:1013C000032C02D0B0FBF2F001E0B3FBF2F0CA68EC
:1013D000C968C2F306225043C1F34161491C490068
:1013E000B0FBF1F010BD0000001002400024F4003A
:1013F00000366E012DE9F84304007AD02078FA4DCA
:10140000C00747D0A868E96800F00C0001F00301AC
:101410000C2802D0082817D001E0032914D06068F6
:10142000B0F5803F17D0B0F5A02F286817D020F472
:1014300080302860286820F4802028606068E0B14F
:10144000FFF770FC064614E02868800322D5606828
:101450000028D2D01EE0286840F48030EDE740F448
:1014600080202860F7E700BFFFF75CFC801B642842
:1014700070D828688003F7D50CE0FFF753FC0646C8
:1014800005E000BFFFF74EFC801B6428F0D82868F9
:101490008003F7D4207880074CD5A868E96800F06D
:1014A0000C0001F003010C2802D004280DD001E04B
:1014B00002290AD0E068002828682BD040F4807008
:1014C0002860FFF72FFC064619E02868400502D582
:1014D000E068002891D06868217C20F0FE4040EA56
:1014E00001606860C1480068FFF73AFC002800D13D
:1014F00020E076E1FFF716FC801B0228B8D82868A8
:101500004005F7D56868217C20F0FE4040EA016084
:1015100068600FE020F480702860FFF703FC064647
:1015200005E000BFFFF7FEFB801B0228A0D828685B
:101530004005F7D42078000729D560690028D5F840
:10154000940013D040F00100C5F89400FFF7EAFBC7
:10155000064606E090E000BFFFF7E4FB801B022890
:1015600086D8D5F894008007F6D510E020F0010069
:10157000C5F89400FFF7D6FB064604E0FFF7D2FB60
:10158000801B022878D8D5F894008007F6D42078FC
:10159000400761D5A86D0026C00008D4A86D40F0B2
:1015A0008050A865A86D012600F0805000909048FA
:1015B0000168C90511D40168804641F48071016059
:1015C000FFF7B0FB074604E0FFF7ACFBC01B0228A7
:1015D00052D8D8F80000C005F6D5A068012815D06B
:1015E0000528D5F8900016D020F00100C5F890002D
:1015F000D5F8900020F00400C5F89000A06841F2F2
:101600008838B8B1FFF78EFB07460EE0D5F890009A
:1016100040F00100F0E740F00400C5F89000F5E765
:10162000FFF780FBC11B414526D8D5F89000800705
:10163000F6D50CE0FFF776FB074604E0FFF772FBF8
:10164000C11B414518D8D5F890008007F6D41EB1CB
:10165000A86D20F08050A8652078800629D5A06963
:101660000028D5F8980013D040F00100C5F8980084
:10167000FFF758FB064606E077E000BFFFF752FB96
:10168000801B022877D8D5F898008007F6D510E09F
:1016900020F00100C5F89800FFF744FB064604E07F
:1016A000FFF740FB801B022865D8D5F8980080071B
:1016B000F6D4E069F0B3A968C1F38101032961D0D0
:1016C0000228286820F0807028600BD0E86820F09D
:1016D0000300E860E86847490840E860FFF722FB3C
:1016E00004464BE0FFF71EFB064604E0FFF71AFB3B
:1016F000801B02283FD828688001F7D4F4E908014C
:101700006FF00F0202EB01110843218A52044908CD
:1017100002EB4151A26841EA02210843217D4FF0CA
:101720007E42490802EB41610843217B40EAC160E7
:10173000E96800E062E0304A11400843E860286848
:1017400040F080702860E86840F08070E860FFF743
:10175000E9FA044605E000BFFFF7E4FA001B02289F
:1017600009D828688001F7D548E004E0FFF7DAFAE5
:10177000001B022802D90320BDE8F88328688001F5
:10178000F4D43BE00128F7D0E868226A00F00301B6
:10179000914226D1616A00F0F002090110399142AC
:1017A0001FD1A26A00F4FE41B1EB022F19D194F8C7
:1017B0002C2000F07841B1EBC26F12D1218E00F4E1
:1017C000C00249084905A1F50011914209D194F8D8
:1017D000341000F0C06049084906A1F1007181424F
:1017E0000CD00120C8E70000001002400C000020CF
:1017F00000700040FFFFEEFE0C809F010020BBE761
:1018000010B5401EB0F1807F01D3012010BD4FF014
:10181000E02460610F21601701F0ECFA0020A06164
:1018200007202061002010BD704770477047704747
:1018300070477047F0B590F83C20012A3AD0012556
:1018400080F83C50022280F83D2003685A689C686A
:10185000194E1A4FB34201D0BB4204D122F4700C8E
:101860004A6842EA0C02DFF858C002EA0C02D1F8DA
:1018700000C04CEA020CC3F804C00268B2420DD0AA
:10188000B2F1804F0AD00F4B9A4207D00E4B9A42CA
:1018900004D0BA4202D00D4B9A4204D1896824F098
:1018A00080031943916080F83D50002180F83C107E
:1018B0000846F0BD0220F0BD002C0140003401407C
:1018C0008FFFFFFD00040040000800400040014081
:1018D000704710B5040003D094F83D0010B107E044
:1018E000012010BD002084F83C00204600F022F8C2
:1018F000022084F83D00211D206801F069F80120D4
:1019000084F8480084F83E0084F83F0084F84000E2
:1019100084F8410084F8420084F8430084F84400CD
:1019200084F8450084F8460084F8470084F83D00B8
:10193000002010BD08B5154A0168154891420ED126
:10194000016E41F400310166006E002200F40030A7
:10195000009011461920FFF74BFA192010E00D4AAC
:10196000914211D1016E41F480210166006E002286
:1019700000F48020009011461A20FFF739FA1A204F
:10198000BDE80840FFF726BA08BD0000004401404A
:10199000001002400048014090F83D10012901D09C
:1019A00001207047022180F83D100168CA6842F0AA
:1019B0000102CA600068104988420ED0B0F1804F21
:1019C0000BD00E49884208D00D49884205D00D49F8
:1019D000884202D00C49884207D181680B4A1140E5
:1019E000062906D0B1F5803F03D0016841F001011E
:1019F0000160002070470000002C014000040040FE
:101A00000008004000340140004001400700010090
:101A10000168CA6822F00102CA6001680A6A41F2DC
:101A200011131A4207D10A6A9B001A4203D10A68AD
:101A300022F001020A60012180F83D100020704769
:101A4000704770B50446006801694FF00005C9434E
:101A5000890715D4C168C943890711D4E91E0161FA
:101A600001202077206880698007204602D0FFF798
:101A7000E7FF04E000F00AF9204600F0DDF92577E1
:101A800020680169C943490717D4C168C943490798
:101A900013D46FF00401016102202077206880696F
:101AA00010F4407F204602D0FFF7CAFF04E000F0A8
:101AB000EDF8204600F0C0F9257720680169C94398
:101AC000090716D4C168C943090712D46FF0080189
:101AD0000161042020772068C0698007204602D079
:101AE000FFF7AEFF04E000F0D1F8204600F0A4F9C3
:101AF000257720680169C943C90617D4C168C9435D
:101B0000C90613D46FF01001016108202077206806
:101B1000C06910F4407F204602D0FFF791FF04E037
:101B200000F0B4F8204600F087F9257720680169B5
:101B3000C943C90708D1C168C943C90704D1891E6F
:101B40000161204600F0F8F920680169C9430906DF
:101B500009D4C168C943090605D46FF08001016149
:101B60002046FFF762FE20680169C943C90509D410
:101B7000C168C943090605D46FF48071016120462C
:101B8000FFF752FE20680169C943490609D4C168BC
:101B9000C943490605D46FF040010161204600F0B9
:101BA00021FA20680169C943890609D4C168C9437B
:101BB000890605D46FF0200101612046FFF736FE4B
:101BC00020680169C943C90209D4C168C943C9026F
:101BD00005D46FF4801101612046FFF729FE2068CB
:101BE0000169C943890209D4C168C943890205D47E
:101BF0006FF4001101612046FFF719FE20680169AA
:101C0000C943490209D4C168C943490205D46FF4E4
:101C1000800101612046FFF70CFE20680169C9437D
:101C200009020BD4C168C943090207D46FF400014B
:101C300001612046BDE87040FFF74ABE70BD00005C
:101C400010B586B0044614216846FEF7E8FA20680D
:101C5000B0F1804F15D10C48C16C41F00101C16455
:101C6000C06C694600F001000590022000900190D0
:101C7000002002900390012004904FF09040FEF766
:101C800023FF06B010BD000000100240704770B581
:101C9000044690F83C0000260D4601280BD0012098
:101CA00084F83C000C2A4AD007DC82B1042A20D0F8
:101CB000082A06D131E0022070BD102A53D0142A20
:101CC00063D00126002084F83C00304670BD2068B7
:101CD00000F0E4FE2068816941F00801816120681C
:101CE000816921F004018161206881692A691143B9
:101CF00011E0206800F020FF2068816941F4006154
:101D000081612068816921F4806181612068816935
:101D10002A6941EA02218161D4E7206800F054FF7A
:101D20002068C16941F00801C1612068C16921F0E2
:101D30000401C1612068C1692A69114311E020686A
:101D400000F08AFF2068C16941F40061C161206828
:101D5000C16921F48061C1612068C1692A6941EAD1
:101D60000221C161AEE7206800F0BEFF2068016D6E
:101D700041F0080101652068016D21F00401016551
:101D80002068016D2A69114311E0206800F0E4FF2A
:101D90002068016D41F4006101652068016D21F446
:101DA000806101652068016D2A6941EA02210165AF
:101DB00088E710B5040003D094F83D0010B107E0A7
:101DC000012010BD002084F83C00204600F022F8DD
:101DD000022084F83D00211D206800F0F9FD01205B
:101DE00084F8480084F83E0084F83F0084F84000FE
:101DF00084F8410084F8420084F8430084F84400E9
:101E000084F8450084F8460084F8470084F83D00D3
:101E1000002010BD08B50068B0F1804F08D105481A
:101E2000816D41F001018165806D00F0010000903D
:101E300008BD0000001002407047000030B50446A5
:101E4000022269B1042912D0082917D00C291CD00C
:101E5000102921D094F84300012824D0012030BD5E
:101E600094F83E000128F9D184F83E201DE094F852
:101E70003F000128F2D184F83F2016E094F840009A
:101E80000128EBD184F840200FE094F841000128AC
:101E9000E4D184F8412008E094F842000128DDD123
:101EA00084F8422001E084F843200122206800F0F9
:101EB000E7FD194B20681949194A984209D0884210
:101EC00007D0904205D0174DA84202D0164DA84227
:101ED00003D1456C45F400454564206898420CD018
:101EE000B0F1804F09D0114B984206D0104B984268
:101EF00003D0884201D0904207D181680D4A114039
:101F0000062906D0B1F5803F03D0016841F00101F8
:101F10000160002030BD0000002C01400034014071
:101F200000400140004401400048014000040040DE
:101F300000080040070001002DE9F041264906464F
:101F40000068096801270025244C884226D1606872
:101F5000401C642190FBF1F2606001FB120068B943
:101F6000606A10B1012805D008E0032001F09EF856
:101F7000676203E0012001F099F86562606841F250
:101F8000883190FBF1F201FB120038B9012001F019
:101F90008DF811482561FFF73BFD656010493068F9
:101FA0000968884215D1A068401CA060B0F5FA6F9E
:101FB0000FD101214FF09040FEF7AAFE18B905207D
:101FC000E76201F073F8A560BDE8F0410448FFF74F
:101FD0001FBDBDE8F08100007C0100201C00002036
:101FE000300100207047FEE700B585B01421684637
:101FF000FEF715F94FF6FF70009000200321CDE9A0
:102000000201019069460248FEF75EFD05B000BD81
:102010000008004800B585B014216846FEF7FFF8B7
:102020004FF6FF70009001200190032003900020E4
:10203000029069460248FEF747FD05B000BD00006A
:102040000008004870B5002406462146204600F0EE
:1020500003F900F041F94FF49635304600F010F9DD
:10206000641CAC42F9D370BD30B587B0142168460A
:10207000FEF7D5F81E48C16C41F00401C164C16C83
:1020800001F004010591C16C41F00101C164C16C12
:1020900001F001010591C16C41F00201C164C06C05
:1020A000012500F0020005904FF44870CDE90005CD
:1020B00000240394694602940E48FEF705FD2802A9
:1020C00003940090CDE901544FF0904469462046B6
:1020D000FEF7FAFCFFF79EFFA06940F48070A06154
:1020E00004481830016841F40871016007B030BD40
:1020F0000010024000040048203AD2B2034B02EB29
:10210000420203EB021200F019B800002C34000860
:10211000F0B50E460746002540F23F1407E0214681
:102120003846FFF7E9FF103C6D1CA4B2761C3278EC
:10213000002A01D0142DF2D3F0BD00002DE9F047A4
:1021400091468A460026044600F086F8DFF8408073
:10215000012700BF00F0C0F85FF0000539F8160055
:1021600007FA05F10842404601D1408800E00088A6
:1021700000F086F86D1C102DF0D3641CE4B25146BB
:10218000204600F069F8761C182EE3D3BDE8F087EE
:102190005000002010B5FFF767FF002000F014F892
:1021A000084CA080A088A0F50241303906D000F08C
:1021B000C3FA002000F008F8A08010BD00F033FA48
:1021C000F7E700005000002070B51D490A6842F48E
:1021D00000720A600A6842F480720A60184C103C6F
:1021E000226842F020022260164A1060086840F01F
:1021F0002000086000BF00BF00BF206840F0200042
:102200002060206840F480702060FFF7EDFE4FF002
:102210009041886A40F48070886200BF00BF00BFB0
:102220000848001F006885B2886940F480708861A2
:10223000FFF7F0FE206840F400702060284670BD73
:10224000280400481408004801B5BDF80000014901
:10225000488008BD5000002010B50C4601462020E3
:1022600000F068F82146BDE81040212000F062B877
:1022700001B5BDF800000149088008BD50000020EC
:10228000134A116841F400711160114910390B684B
:1022900043F480730B600B6843F020030B600D4B1D
:1022A0001860106840F02000106000BF00BF00BF41
:1022B000086840F020000860086840F480700860FA
:1022C00000BF00BF00BF086840F40070086070479E
:1022D00028040048140800481449086840F40070B5
:1022E0000860086840F48070086010481038026880
:1022F00042F0200202600E4B22221A600A6842F06D
:1023000020020A6000BF00BF00BF016841F0200149
:102310000160016841F48071016000BF00BF00BF2F
:10232000016841F400710160704700002804004812
:1023300014080048184B10B51A6842F400721A606D
:102340001A6842F480721A60134A103A146844F012
:1023500020041460114C2060186840F020001860C0
:1023600000BF00BF00BF106840F020001060106880
:1023700040F4807010602160186840F02000186000
:1023800000BF00BF00BF106840F020001060106860
:1023900040F48070106010BD280400481408004804
:1023A00000EB8100006E00F0F84070478068C0F3D9
:1023B000C00070478068C0F380007047042303EAC0
:1023C000D15310B518444369C1F3045107248C401C
:1023D000A3438A401343436110BD00EB8100016EAB
:1023E00021F00041114301667047000030B589B00B
:1023F00020216846FDF713FF1948184900240160A1
:102400004902C0E90114C46004250461C0E905451E
:10241000047744770121016280F82440C462046398
:1024200080F83840C46380F84040FEF787F908B16F
:10243000FDF772FF0B4800900620CDE901047F20D4
:102440000594CDE9030569460548FDF767FF0028B7
:1024500001D0FDF761FF09B030BD00000001005060
:10246000780000200080F03EF0B587B01421684667
:10247000FDF7D5FE2D48C16C41F00401C164C16C6B
:1024800001F004010591C16C41F02001C164C16CEF
:1024900001F020010591C16C41F00101C164C16CE2
:1024A00001F001010591C16C41F00201C164C16CF0
:1024B00001F002010591C16C41F00801C164C06CDA
:1024C0001B4E00F008004FF47F4405900122214686
:1024D0003046FEF722FC174F002204213846FEF753
:1024E0001CFC0125CDE900450024029469463046D4
:1024F0000394FEF7E9FACDE9005469464FF09040A5
:102500000295FEF7E1FA07208DE8310069460A4896
:10251000FEF7DAFA04200090CDE901546946384606
:102520000394FEF7D1FA07B0F0BD0000001002409E
:1025300000080048000C0048000400480C4810B592
:102540000A4901604F214160002140F2E732C0E9B1
:102550000212016141618161FFF7BBF9002803D0DC
:10256000BDE81040FDF7D8BE10BD0000004401409A
:10257000300100200C4810B50A4901604F2141602C
:10258000002140F2E732C0E902120161416181613C
:10259000FFF79FF9002803D0BDE81040FDF7BCBE4F
:1025A00010BD0000004801407C01002010B58AB039
:1025B0000024079408941C2168460994FDF72FFE17
:1025C00016484FF0804101604F21C0E90114F92104
:1025D000C0E903148461FFF7ECFB08B1FDF79CFE32
:1025E000079407A90D480994FFF724F908B1FDF7EE
:1025F00093FE602000904FF4C870CDE901040422DE
:10260000694606480494FFF742FB08B1FDF784FED3
:102610000248FFF715FB0AB010BD0000E4000020DF
:10262000FEE7FEE7704730B501210020FFF782FE8C
:102630004FF47A70FDF762FE00210120FFF77AFE69
:1026400041F290711020FFF775FE4FF41C5160208D
:10265000FFF770FE01216120FFF76CFE022146208A
:10266000FFF768FE48F210011320FFF763FE48F2FF
:10267000FE011220FFF75EFE4FF4A0610220FFF77B
:1026800059FE41F230010320FFF754FE40F20334BB
:1026900021463020FFF74EFE21463120FFF74AFE4B
:1026A00021463220FFF746FEE51E29463320FFF77C
:1026B00041FE03213420FFF73DFE21463520FFF780
:1026C00039FE14213620FFF735FE21463720FFF76B
:1026D00031FE21463820FFF72DFE21463920FFF735
:1026E00029FE29463A20FFF725FE03213B20FFF76C
:1026F00021FE21463C20FFF71DFE4FF4A0513D2056
:10270000FFF718FE4FF400719220FFF713FE2146E9
:102710009320FFF70FFE40F60D019020FFF70AFE11
:1027200041F218010320FFF705FEBDE8304040F2FA
:1027300073110720FFF7FEBD10B543F20801E32037
:10274000FFF7F8FD1221E720FFF7F4FD41F23121F8
:10275000EF20FFF7EFFD00210120FFF7EBFD4FF425
:10276000E0610220FFF7E6FD41F230010320FFF7B0
:10277000E1FD00210420FFF7DDFD40F207210820E4
:10278000FFF7D8FD00210920FFF7D4FD00210A2022
:10279000FFF7D0FD00210C20FFF7CCFD00210D201C
:1027A000FFF7C8FD00210F20FFF7C4FD0021102016
:1027B000FFF7C0FD07211120FFF7BCFD002112200B
:1027C000FFF7B8FD00211320FFF7B4FDC820FEF786
:1027D00069F941F290611020FFF7ACFD40F227212A
:1027E0001120FFF7A7FD3220FEF75CF91D21122012
:1027F000FFF7A0FD3220FEF755F94FF400611320DA
:10280000FFF798FD14212920FFF794FD0B212B20C1
:10281000FFF790FD3220FEF745F900212020FFF759
:1028200089FD00212120FFF785FD07213020FFF7DA
:1028300081FD40F207713120FFF77CFD0621322037
:10284000FFF778FD40F204713520FFF773FD41F684
:1028500004713620FFF76EFD04213720FFF76AFD73
:1028600000213820FFF766FD40F206713920FFF79E
:1028700061FD40F201713C20FFF75CFD0F213D201E
:10288000FFF758FD00215020FFF754FDEF215120A4
:10289000FFF750FD00215220FFF74CFD40F23F11A1
:1028A0005320FFF747FD4FF41C516020FFF742FD16
:1028B00001216120FFF73EFD00216A20FFF73AFD6C
:1028C00000218020FFF736FD00218120FFF732FD37
:1028D00000218220FFF72EFD00218320FFF72AFD33
:1028E00000218420FFF726FD00218520FFF722FD2F
:1028F00010219020FFF71EFD00219220FFF71AFD06
:1029000003219320FFF716FD4FF488719520FFF700
:1029100011FD00219720FFF70DFD00219820FFF702
:1029200009FD41F218010320FFF704FDBDE8104046
:1029300040F273110720FFF7FDBC7047FEF7F8B9AE
:1029400010B594B038216846FDF769FC14210EA833
:10295000FDF765FC4FF40070FEF77CFA0120009053
:102960000004019002200324CDE907041421CDE9DD
:102970000A100C900D9009946846FEF73BFD08B1D3
:1029800072B6FEE70F20CDE90E04002010901190E2
:10299000129002210EA8FEF707FC002801D072B6A3
:1029A000FEE714B010BD00000248016841F4700158
:1029B0000160704788ED00E00148FFF742B8000071
:1029C0007C0100200148FFF73CB8000030010020E6
:1029D0002DE9F0430268234B234D244E244C4FF045
:1029E0008049984207D0484505D0A84203D0B0425C
:1029F00001D0A04203D122F070074A683A431D4F2C
:102A0000DFF874C0DFF8748098420DD048450BD0D1
:102A1000A84209D0B04207D0A04205D0B84203D0A6
:102A2000604501D0404503D122F44075CA682A436D
:102A30004D6922F080022A4302608A68C2620A68F5
:102A40008262984207D0A04205D0B84203D06045C8
:102A500001D0404501D10969016301214161BDE80F
:102A6000F0830000002C01400004004000080040FA
:102A70000034014000400140004401400048014052
:102A800010B501F01F030121046A99408C430462D0
:102A9000016A9A401143016210BD00002DE9F04324
:102AA000026A22F001020262056A436882691C4CD4
:102AB00025F0020522400C6822F0030214438A68C4
:102AC000194E2A43174D194FDFF864C0DFF86490A0
:102AD000A84207D0B04205D0B84203D0604501D02B
:102AE000484506D122F00808CA6842EA080222F0E6
:102AF0000402A84207D0B04205D0B84203D06045D6
:102B000001D0484505D14D6923F440731D438B69BD
:102B10002B4343608461496841630262BDE8F083EE
:102B20008FFFFEFF002C01400034014000400140B7
:102B30000044014000480140F0B5026A22F0100252
:102B40000262056A42688369194C1B4E23400C6877
:102B500023F4407343EA042425F020038D6843EAFC
:102B60000513144DA84201D0B04206D1CF6823F01E
:102B7000800343EA071323F04003A8420AD0B0427F
:102B800008D00E4DA84205D00D4DA84202D00D4DE3
:102B9000A84207D14D6922F4406242EA85028D695C
:102BA00042EA850242608461496881630362F0BD44
:102BB000FF8FFFFE002C0140003401400040014027
:102BC0000044014000480140F0B5026A22F48072DE
:102BD0000262056A4368C269194C1B4E22400C68A8
:102BE00022F00302144325F400728D6842EA0522A4
:102BF000144DA84201D0B04206D1CF6822F4006241
:102C000042EA072222F48062A8420AD0B04208D0E9
:102C10000E4DA84205D00E4DA84202D00D4DA8423F
:102C200007D14D6923F4405343EA05138D6943EA04
:102C300005134360C4614968C1630262F0BD0000CE
:102C40008FFFFEFF002C0140003401400040014096
:102C50000044014000480140F0B5026A22F480526D
:102C60000262056A4268C369194C1B4E23400C6816
:102C700023F4407343EA042425F400538D6843EAA7
:102C80000533144DA84201D0B04206D1CF6823F4D9
:102C9000004343EA073323F48043A8420AD0B042FA
:102CA00008D00E4DA84205D00D4DA84202D00D4DC2
:102CB000A84207D14D6922F4404242EA85128D694B
:102CC00042EA85124260C461496801640362F0BD52
:102CD000FF8FFFFE002C0140003401400040014006
:102CE000004401400048014030B5026A22F48032BD
:102CF0000262046A4268036D114D2B400D681D434A
:102D000024F400330C8943EA04430E4CA0420BD058
:102D10000D4CA04208D00D4CA04205D00C4CA04256
:102D200002D00C4CA04204D14C6922F4803242EA19
:102D300004224260056549688164036230BD000079
:102D40008FFFFEFF002C0140003401400040014095
:102D5000004401400048014030B5026A22F480126C
:102D60000262046A4268036D114D24F400142B4082
:102D70000D6843EA05230D8944EA05540D4DA84228
:102D80000BD00D4DA84208D00C4DA84205D00C4DDB
:102D9000A84202D00B4DA84204D14D6922F48022F2
:102DA00042EA8522426003654968C164046230BD1D
:102DB000FF8FFFFE002C0140003401400040014025
:102DC0000044014000480140FEE700000FB4084BFA
:102DD00010B504A902AA039800F02CF8044602A931
:102DE000002000F0D1F8204610BC5DF814FB000074
:102DF000892F00080907090E002804DB00F1E020F4
:102E000080F80014704700F00F0000F1E02080F817
:102E1000141D704702E008C8121F08C1002AFAD129
:102E200070477047002001E001C1121F002AFBD14A
:102E3000704700002DE9FF4F89B09B4604460025EE
:102E400006E025280BD05A460B999047641C6D1C50
:102E500020780028F5D10DB02846BDE8F08F002776
:102E6000B8460122474900E0074314F8013F203BE0
:102E700002FA03F00842F7D120782E2819D114F86D
:102E8000010F47F004072A280ED06FF02F02207898
:102E9000A0F1300109290CD808EB880102EB4101AF
:102EA00000EB0108641CF2E70A98641C50F8048BDC
:102EB0000A9020780028CED0642808D0692806D04F
:102EC00075281ED05A460B9990476D1C58E00A99F8
:102ED0004FF00A0901C90A91002802DA40422D2167
:102EE00002E0390504D52B218DF82010012103E0E3
:102EF000F90704D02021F7E78A4608AE0DE000214B
:102F0000FAE70A994FF00A0901C90A91F7E7494619
:102F1000FDF790F9303106F8011D0028F7D1ADEB2F
:102F2000060000F12009780701D44FF00108C845D8
:102F300002DDA8EB090000E000208046002706E043
:102F400008A85A46C05D0B9990476D1C7F1C5745D9
:102F5000F6DB04E030205A460B9990476D1CB8F11F
:102F60000001A8F10108F5DC05E016F8010B5A464E
:102F70000B9990476D1CB9F10001A9F10109F4DC2E
:102F8000641C65E7092801000A68531C0B60107077
:102F90007047000070B540480168404C226B891AA8
:102FA00032292AD30068206300F014FAC0B22278D4
:102FB000207020EA0201002601253948012915D098
:102FC000022920D003293FD0042916D10068012806
:102FD0004FD0002811D13348FEF7DEFCE06A01280B
:102FE0000BD1E662BDE8704000F060B8016829B11D
:102FF000012905D0022900D1066070BD056070BDB1
:103000000221016070BD006838B10128FAD1E06981
:10301000C0B10128F6D1E66170BD2348FEF7BCFCC3
:10302000A562D4E9031051EA000209D00129F3D1C5
:103030000028F1D1E660206A2561401C206270BD45
:10304000E560F8E7E56170BD00680128FBD1E06943
:1030500040B10128F7D1A069401CA0610A28F2DD27
:10306000A56170BD6069401C60610A28F9DD656179
:1030700070BDE0690A2140B10128F9D1A069401E64
:10308000A0610128F4DAA16170BD6069401E606131
:103090000128F9DA616170BD140000201C000020D5
:1030A00000000020300100207C01002070B50D4D93
:1030B000044601224FF6FF712846FDF72EFE21023D
:1030C00000222846FDF729FE074C01220421204654
:1030D000FDF723FE2046BDE8704000220421FDF7E5
:1030E0001CBE000000080048000C0048FDF728FE48
:1030F000FFF726FCFFF7B8F9FFF73CFAFFF756FA9F
:10310000FFF71CFAFFF772F90020FFF7CFFFFFF778
:1031100041F80020FEF796FF0020FFF795F84FF6E4
:10312000FF70FFF7A5F804214C48FEF787FE4B49D6
:103130004FF4C87009688863494C206810B90120B1
:10314000FFF7B4FF4748FDF733FC474D4548FDF70F
:10315000F1FA6060206820B1012829D0022849D006
:1031600076E042A10020FEF7D3FF46A11820FEF72B
:10317000CFFF3EA13020FEF7CBFF286810B1012819
:1031800002D005E045A100E04AA14820FEF7C0FFBB
:103190004EA15448A268FFF719FE52496020FEF77D
:1031A000B7FF51A14F486268FFF710FE4D493CE060
:1031B0002EA10020FEF7ACFF50A11820FEF7A8FFBB
:1031C0002AA13020FEF7A4FF524853A102684548C7
:1031D000FFF7FCFD43494820FEF79AFF544855A1EC
:1031E00002684048FFF7F2FD3E496020FEF790FF7D
:1031F0001EA11AE01DA10020FEF78AFF53A118208E
:10320000FEF786FF19A13020FEF782FF554856A130
:1032100002683448FFF7DAFD32494820FEF778FFAC
:1032200057A16020FEF774FF5BA17820FEF770FFC6
:103230000EA19020FEF76CFF0CA1A820FEF768FFFE
:103240000AA1C020FEF764FF08A1D820FEF760FFA6
:10325000FFF7A0FE00F0ACF878E70000E4000020E3
:1032600000000020780000202800002020202020DE
:10327000202020202020202020202020202020204E
:103280000000000020202020202020204441544124
:1032900020202020202020200000000020202020AE
:1032A000204D3D4C202020202020202020202020A8
:1032B0000000000020202020204D3D48202020201C
:1032C000202020202020202000000000202020207E
:1032D00020503D256425252020202020202020204E
:1032E00000000000580000202020202020563D250E
:1032F00064202020202020202020000020202020CA
:103300002020202050415241202020202020202019
:1033100000000000300000202020202020523D2509
:1033200064202020202020202020202020000000B9
:103330003400002020202020204B3D256420202028
:1033400020202020202020202000000020202020DD
:1033500020202020524543442020202020202020CF
:10336000000000003C00002020202020204E3D25B1
:103370006420202020202020202020200000000089
:1033800020202020204D483D3131302E3820202073
:10339000202020200000000020202020204D4C3D37
:1033A00033382E3220202020202020200000000052
:1033B00006480268064801682AB1012A02D17C2227
:1033C000CA62C2607047F922FAE7000028000020B4
:1033D000E400002070B5104D002401212846FDF7BF
:1033E00097FC80B102212846FDF792FC68B10421C8
:1033F0002846FDF78DFC50B101214FF09040FDF7BC
:1034000087FC30B106E0012404E0022402E003243A
:1034100000E00424204670BD0004004800000000C5
:103420000000000001020304060708090000000074
:10343000000000000000000000000000000000008C
:10344000000000000000000000000000000000007C
:1034500000000000000000000000000000008001EB
:103460008001800180018001800180018001800154
:103470008001800180018001000000008001800146
:10348000000000000000000000000000000000003C
:10349000CC00CC00CC00CC00CC00CC000000000064
:1034A000000000000000000000000000000000001C
:1034B000000000000000000000000000000000000C
:1034C0000000000000000000600C600C600C300682
:1034D0003006FE1FFE1F300638071803FE1FFE1FB2
:1034E000180318038C018C018C010000000080007F
:1034F000E003F80F9C0E8C1C8C188C009800F801CF
:10350000E007800E801C8C188C189C18B80CF00FEB
:10351000E0038000800000000000000000000000C8
:1035200000000E181B0C110C1106110611031103DB
:103530009B018E01C038C06C60446044304430440C
:103540001844186C0C380000000000000000E00176
:10355000F0033807180618063003F001F000F800F1
:103560009C310E33061E061C061C063FFC73F02120
:10357000000000000000000000000000000000004B
:103580000C000C000C000C000C000C0000000000F3
:10359000000000000000000000000000000000002B
:1035A0000000000000000000000000000000000219
:1035B00000038001C000C0006000600030003000E7
:1035C000300030003000300030003000600060001B
:1035D000C000C000800100030002000000002000C5
:1035E0006000C000800180010003000300060006A7
:1035F00000060006000600060006000600030003A1
:1036000080018001C0006000200000000000000078
:103610000000000000000000C000C000D806F8074D
:10362000E001300338070000000000000000000047
:10363000000000000000000000000000000000008A
:103640000000000000000000800180018001800176
:103650008001FC3FFC3F80018001800180018001EE
:10366000000000000000000000000000000000005A
:10367000000000000000000000000000000000004A
:1036800000000000000000000000000000008001B9
:103690008001000100018000000000000000000027
:1036A000000000000000000000000000000000001A
:1036B00000000000E007E00700000000000000003C
:1036C00000000000000000000000000000000000FA
:1036D00000000000000000000000000000000000EA
:1036E0000000000000000000000000000000C0001A
:1036F000C000000000000000000000000000000CFE
:10370000000C00060006000600030003000380030F
:10371000800180018001C000C000C0006000600026
:103720000000000000000000000000000000E003B6
:10373000F007380E180C0C180C180C180C180C1874
:103740000C180C180C180C18180C380EF007E003A5
:103750000000000000000000000000000000000168
:103760008001C001F0019801880180018001800181
:103770008001800180018001800180018001800141
:103780000000000000000000000000000000E00356
:10379000F80F180C0C180C1800180018000C000674
:1037A00000038001C000600030001800FC1FFC1FF7
:1037B0000000000000000000000000000000E00128
:1037C000F807180E0C0C0C0C000C0006C003C00708
:1037D000000C001800180C180C18180CF807E0035F
:1037E0000000000000000000000000000000000CCD
:1037F000000E000F000F800DC00C600C600C300C30
:10380000180C0C0CFC3FFC3F000C000C000C000CD6
:103810000000000000000000000000000000F80FA1
:10382000F80F180018000C00EC03FC071C0E001C1D
:103830000018001800180C181C0C180EF807E003EC
:103840000000000000000000000000000000C007B1
:10385000F00F381C181818000C00CC03EC0F3C0EAD
:103860001C1C0C180C180C18181C380EF007E00360
:103870000000000000000000000000000000FC1F2D
:10388000FC1F000C00060006000380038001C0013D
:10389000C000E000600060007000300030003000C8
:1038A0000000000000000000000000000000E00335
:1038B000F007380E180C180C180C3806F007F00733
:1038C000180C0C180C180C180C18380CF80FE00316
:1038D0000000000000000000000000000000E00305
:1038E000F007380E1C0C0C180C180C181C1C381E79
:1038F000F81BE0190018000C000C1C0EF807F00172
:1039000000000000000000000000000000000000B7
:1039100000000000000000008001800100000000A5
:103920000000000000000000000000008001800195
:103930000000000000000000000000000000000087
:103940000000000000000000800180010000000075
:103950000000000000000000000000008001800165
:1039600000010001800000000000000000000000D5
:103970000000000000000000000000000010001C1B
:10398000800FE003F8001800F800E003800F001C2F
:103990000010000000000000000000000000000017
:1039A000000000000000000000000000F81F000000
:1039B00000000000F81F00000000000000000000F0
:1039C00000000000000000000000000000000000F7
:1039D00000000000000000000000000008003800A7
:1039E000F001C007001F0018001FC007F0013800D9
:1039F0000800000000000000000000000000E003DC
:103A0000F80F180C0C180C180018000C0006000316
:103A10008001C000C000C00000000000C000C00065
:103A20000000000000000000000000000000000096
:103A3000E00718180420C229224A11440944094405
:103A4000094409221113E20C024004201818E0076F
:103A500000000000000000000000000000008003E3
:103A60008003C006C006C006600C600C3018301819
:103A70003018F83FF83F1C700C600C6006C006C0A0
:103A80000000000000000000000000000000FC0337
:103A9000FC0F0C0C0C180C180C180C0CFC07FC0F71
:103AA0000C180C300C300C300C300C18FC1FFC07C0
:103AB0000000000000000000000000000000C0073F
:103AC000F01F38381C300C70066006000600060037
:103AD00006000600060006600C701C30F01FE007B0
:103AE0000000000000000000000000000000FE03D5
:103AF000FE0F060E06180618063006300630063091
:103B000006300630063006180618060EFE0FFE03B5
:103B10000000000000000000000000000000FC3F6A
:103B2000FC3F0C000C000C000C000C00FC1FFC1FE8
:103B30000C000C000C000C000C000C00FC3FFC3FC7
:103B40000000000000000000000000000000F83F3E
:103B5000F83F18001800180018001800F81FF81F88
:103B60001800180018001800180018001800180095
:103B70000000000000000000000000000000E00F56
:103B8000F83F3C780E6006E007C00300030003FE28
:103B900003FE03C007C006C00EC03CF0F83FE00FB4
:103BA00000000000000000000000000000000C30D9
:103BB0000C300C300C300C300C300C30FC3FFC3F27
:103BC0000C300C300C300C300C300C300C300C3015
:103BD0000000000000000000000000000000800164
:103BE00080018001800180018001800180018001CD
:103BF00080018001800180018001800180018001BD
:103C000000000000000000000000000000000006AE
:103C10000006000600060006000600060006000674
:103C2000000600060006180618063807F003E00133
:103C3000000000000000000000000000000006304E
:103C40000618060C060606038601C6006600760006
:103C5000DE008E0106030606060C06180630066016
:103C6000000000000000000000000000000018003C
:103C70001800180018001800180018001800180084
:103C8000180018001800180018001800F81FF81F76
:103C900000000000000000000000000000000EE036
:103CA0001EF01EF01EF036D836D836D836D866CC80
:103CB00066CC66CCC6C6C6C6C6C6C6C686C386C3DE
:103CC00000000000000000000000000000000C30B8
:103CD0001C303C303C306C306C30CC30CC308C31D3
:103CE0000C330C330C360C360C3C0C3C0C380C30C2
:103CF0000000000000000000000000000000E007DD
:103D0000F81F1C380E70066003C003C003C003C058
:103D100003C003C003C006600E701C38F81FE00724
:103D20000000000000000000000000000000FC0F88
:103D3000FC1F0C380C300C300C300C300C18FC1FF5
:103D4000FC070C000C000C000C000C000C000C001C
:103D50000000000000000000000000000000E0077C
:103D6000F81F1C380E70066003E003C003C003C0D8
:103D700003C003C007E006630E3F1C3CF83FE0F7BA
:103D800000C0000000000000000000000000FE0F66
:103D9000FE1F06380630063006300638FE1FFE07C6
:103DA00006030606060C06180618063006300660DE
:103DB0000000000000000000000000000000E00320
:103DC000F80F1C0C0C180C180C001C00F803E00F6A
:103DD000001E0038063006300E301C1CF80FE007BD
:103DE0000000000000000000000000000000FE7F56
:103DF000FE7F8001800180018001800180018001BF
:103E000080018001800180018001800180018001AA
:103E100000000000000000000000000000000C3066
:103E20000C300C300C300C300C300C300C300C30B2
:103E30000C300C300C300C300C301818F81FE00728
:103E4000000000000000000000000000000003600F
:103E50000630063006300C180C180C18180C180C0C
:103E6000380E30063006700760036003C001C001E1
:103E700000000000000000000000000000000360DF
:103E8000C361C361C36166336633663366336633C9
:103E900066336C1B6C1B6C1B2C1A3C1E380E380EC8
:103EA00000000000000000000000000000000FE023
:103EB0000C7018303018700C600EC007800380033F
:103EC000C003E006700C301C18180C300E6007E0C0
:103ED000000000000000000000000000000003C01F
:103EE00006600C301C383818300C6006E007C00340
:103EF00080018001800180018001800180018001BA
:103F00000000000000000000000000000000FC7F36
:103F1000FC7F006000300018000C000600038001E8
:103F2000C0006000300018000C000600FE7FFE7F1D
:103F30000000000000000000000000000000E0039E
:103F4000E0036000600060006000600060006000EE
:103F50006000600060006000600060006000600061
:103F6000600060006000E003E0030000000030003B
:103F70003000600060006000C000C000C000C001F0
:103F80008001800180010003000300030006000699
:103F90000000000000000000000000000000E0033E
:103FA000E003000300030003000300030003000319
:103FB00000030003000300030003000300030003E9
:103FC000000300030003E003E00300000000000022
:103FD000C001C00160036003600330063006180CA6
:103FE000180C0000000000000000000000000000AD
:103FF00000000000000000000000000000000000C1
:1040000000000000000000000000000000000000B0
:104010000000000000000000000000000000FFFFA2
:10402000FFFF0000000000000000000000000C0086
:104030000C000C000C000C000C0000000000000044
:104040000000000000000000000000000000000070
:104050000000000000000000000000000000000060
:104060000000000000000000F003F8071C0C0C0C1E
:10407000000FF00FF80C0C0C0C0C1C0FF80FF018C4
:104080000000000000000000000000000000180018
:104090001800180018001800D803F80F380C18186A
:1040A00018181818181818181818380CF80FD803FA
:1040B0000000000000000000000000000000000000
:1040C0000000000000000000C003F007300E180CD4
:1040D0001800180018001800180C300EF007C00364
:1040E00000000000000000000000000000000018B8
:1040F0000018001800180018C01BF01F301C1818FA
:1041000018181818181818181818301CF01FC01B89
:10411000000000000000000000000000000000009F
:104120000000000000000000C003F00F300C181861
:10413000F81FF81F180018003818301CF00FC007BF
:104140000000000000000000000000000000800FE0
:10415000C00FC000C000C000F007F007C000C000E2
:10416000C000C000C000C000C000C000C000C0004F
:10417000000000000000000000000000000000003F
:104180000000000000000000E00DF80F180E0C0CFD
:104190000C0C0C0C0C0C0C0C0C0C180EF80FE00D8D
:1041A000000C0C0C1C06F807F001000000001800C1
:1041B0001800180018001800D807F80F381C181835
:1041C000181818181818181818181818181818186F
:1041D0000000000000000000000000000000C0001F
:1041E000C000000000000000C000C000C000C0000F
:1041F000C000C000C000C000C000C000C000C000BF
:104200000000000000000000000000000000C000EE
:10421000C000000000000000C000C000C000C000DE
:10422000C000C000C000C000C000C000C000C0008E
:10423000C000C000C000F8007800000000000C00C2
:104240000C000C000C000C000C0C0C060C038C0178
:10425000CC006C00FC009C018C030C030C060C0CC5
:104260000000000000000000000000000000C0008E
:10427000C000C000C000C000C000C000C000C0003E
:10428000C000C000C000C000C000C000C000C0002E
:10429000000000000000000000000000000000001E
:1042A00000000000000000007C3CFF7EC7E383C1EB
:1042B00083C183C183C183C183C183C183C183C1DE
:1042C00000000000000000000000000000000000EE
:1042D00000000000000000009807F80F381C1818B4
:1042E000181818181818181818181818181818184E
:1042F00000000000000000000000000000000000BE
:104300000000000000000000C003F00F300C18187F
:1043100018181818181818181818300CF00FC003AF
:10432000000000000000000000000000000000008D
:104330000000000000000000D803F80F380C181827
:1043400018181818181818181818380CF80FD80357
:1043500018001800180018001800000000000000E5
:104360000000000000000000C01BF01F301C1818E7
:1043700018181818181818181818301CF01FC01B17
:1043800000180018001800180018000000000000B5
:104390000000000000000000B007F00370003000D3
:1043A000300030003000300030003000300030008D
:1043B00000000000000000000000000000000000FD
:1043C0000000000000000000E003F003380E180CAD
:1043D0003800F003C007000C180C380EF007E0039B
:1043E00000000000000000000000000000000000CD
:1043F0008000C000C000C000F007F007C000C0008F
:10440000C000C000C000C000C000C000C0078007DE
:10441000000000000000000000000000000000009C
:1044200000000000000000001818181818181818CC
:1044300018181818181818181818381CF01FE01930
:10444000000000000000000000000000000000006C
:1044500000000000000000000C18180C180C180CCC
:10446000300630063006600360036003C001C001FF
:10447000000000000000000000000000000000003C
:104480000000000000000000C141C141C36163633E
:10449000636363633636363636361C1C1C1C1C1CA4
:1044A000000000000000000000000000000000000C
:1044B00000000000000000001C38381C300C6006B2
:1044C00060036003600360036006300C381C1C3816
:1044D00000000000000000000000000000000000DC
:1044E000000000000000000018303018301870186C
:1044F000600C600CE00CC006C006800380038003E3
:1045000080018001C001F000700000000000000088
:104510000000000000000000FC1FFC1F000C000653
:1045200000038001C000600030001800FC1FFC1F69
:104530000000000000000000000000000000000378
:104540008001C000C000C000C000C000C00060000A
:104550006000300060004000C000C000C000C0002B
:10456000C000C000800100030000000000008001C6
:104570008001800180018001800180018001800133
:104580008001800180018001800180018001800123
:104590008001800180018001800100000000600036
:1045A000C000C00180018001800180018001000302
:1045B00000030006000300018001800180018001EA
:1045C00080018001C00060000000000000000000C9
:1045D000000000000000000000000000F010F81FC4
:1045E000080F0000000000000000000000000000B4
:1045F0000000000000000000000000001C46000851
:104600000000002058000000142E00087446000826
:104610005800002070050000242E00080000000053
:104620000000000000000000100000000100000079
:10463000000000000024F400000000000000000062
:104640000000000000000000000000000100000069
:104650000100000000000000000000000000000059
:104660000000000000000000000000000000FFFF4C
:044670000000000046
:04000005080001D915
:00000001FF
